:020000040000fa
:080000000001040000000000f3
:020000040000fa
:100200008ff020000e7f22000e0188000000000009
:100210000c00070000aa20000100200011000700c8
:10022000000020000000e000020032000000020098
:10023000000000004a040200000000000040da0054
:100240000000fe004440a900001020000000e00073
:100250000300320000002000a00188004440a800f4
:100260000000060091018800800078000000eb008b
:1002700015003700e280400032a0b4009101ba00be
:10028000e280400032a0b4009102ba00e280400057
:1002900032a0b4000002eb00472bde00f507b200ed
:1002a000602ce10004003a000059eb008301e900f2
:1002b000fdff3e00040037006128e100010032002c
:1002c0000082eb00040007001101ba000200e00008
:1002d000e8ff3a00000006003159ba008301e90046
:1002e0000c0032002159ba008301e90008003200f5
:1002f0000400e00003003a00e280400032a0b400b5
:10030000f5ff370011d9ba008301e900faff3a007e
:100310008100e800e180400032a0b4000000060047
:100320000040da000000fe00889fbe008a9fbe00e9
:10033000010578000100e0000400350008003c00e1
:100340000000e000200032000500370060001000cf
:10035000e080180002003b0001f02c001a0037007a
:100360000004be006011b8006b0920000982cf00b4
:10037000020039000882cf000441b00069425200f7
:100380000e00320008003b008281710061016400b0
:100390008904d1000884d3008b05e8000442e800fa
:1003a000f9ff3a00050037000804440089844c0036
:1003b0008b05e9000442e900fbff3a0062000700f8
:1003c0000af0a70001f0a0004f05be004f04be00d8
:1003d00000000600889fbe008a9fbe008c1f780028
:1003e0007f0007008600330003866c006450e10044
:1003f0002e0032006420e100330032006150e10041
:100400002f0032006120e100310032008585550067
:10041000eb07b000090020000804200005003700a9
:100420000804440089844c000a003100060343009c
:1004300087834b000001530081815b00f8ff33008c
:100440000203be000800a0000804440089844c0098
:10045000f6ff3900c639dd00830173000100320068
:10046000130020008904d1000884d3000998a30058
:10047000050032000800a7000300a0008904d10095
:100480000884d3008b05e8008904d1000884d300d8
:100490000001eb000281d2002b00070001f0a10057
:1004a0000cf0a70001f0a0005e0037006420e1001e
:1004b000600032000801be000200be00f7ff3700f6
:1004c0006120e1005b0032006000b800f3ff3700fc
:1004d0000000200001f82700f0ff37000001be00f7
:1004e000570007000470a70003f0a10003f8a30061
:1004f00013003a006509b100100032000900350010
:100500006928e10002003500010028000000050014
:1005100000004000818048008502e900fcff3a00ad
:1005200000000600f88f4200050035008100d10070
:100530000080d3008502e800fcff3a0000000600be
:100540008000eb0000000500810020006180550064
:100550000b003d000b00200061fe2f000100e100b8
:100560001d00340082817100610164008904d100a2
:100570000884d3000000e800faff3a007100200070
:100580006100640003007000020060000900320096
:1005900061044400e0844c000988a5000500320095
:1005a0008b05e8006808e10002003a008904d100e8
:1005b0000884d300f20f20000258e10005003d003e
:1005c000c75ddd00f907b20089807500080078007a
:1005d000000006000bf827008b00780000000500e3
:1005e0000004be00160007000003be000405be00a4
:1005f0000200be0012000700844f750000000600d4
:100600000200be006450e100050036006420e100f5
:10061000020036000968a30001003a000800be008d
:100620000160a0004f0678004f05be004f04be00d9
:1006300000000600f0ff2f00f1ff2700f9ff370050
:10064000c70ade00f107b200f50fb2000800320061
:10065000e1cf4200020032000170a000240005003a
:10066000810f7000010032000408050044000500fd
:10067000810f700002003a00140005008502e900b5
:100680000000400081c04800fcff3b000170a0005a
:04069000240005003d
:020000040000fa
:0200000401f009
:04000000e6bf000057
:020000040000fa
:0200000401f009
:04000400ff7f00007a
:020000040000fa
:0200000401f009
:040008007fff000076
:020000040000fa
:0200000401f009
:04001400ffff0000ea
:020000040000fa
:1000080090010000900100009001000090010000a4
:100018009001000090010000900100009001000094
:100028009001000090010000900100009001000084
:100038009001000090010000900100009001000074
:1000480090010000c20c0000200c0000900100008c
:100058009001000090010000900100009001000054
:100068009001000090010000900100009001000044
:10007800900100002009000088080000900100009d
:10008800800c0000c00b00009001000090010000ef
:100098009001000090010000900100009001000014
:1000a8009001000090010000900100009001000004
:1000b80090010000900100009001000090010000f4
:1000c80090010000900100009001000090010000e4
:1000d80090010000900100009001000090010000d4
:1000e80090010000900100009001000090010000c4
:0800f8009001000090010000de
:020000040000fa
:1001080090010000900100009001000090010000a3
:100118009001000090010000900100009001000093
:100128009001000090010000900100009001000083
:100138009001000090010000900100009001000073
:1001480090010000c20c0000200c0000900100008b
:100158009001000090010000900100009001000053
:100168009001000090010000900100009001000043
:10017800900100002009000088080000900100009c
:10018800800c0000c00b00009001000090010000ee
:100198009001000090010000900100009001000013
:1001a8009001000090010000900100009001000003
:1001b80090010000900100009001000090010000f3
:1001c80090010000900100009001000090010000e3
:1001d80090010000900100009001000090010000d3
:1001e80090010000900100009001000090010000c3
:0801f8009001000090010000dd
:020000040000fa
:10069400327c000089000000edd90000687700007a
:1006a40000000000005900000000000000000000ed
:1006b4000000000000000000d69f0000dca800003d
:1006c40018170000aa9000004373000027f60000ea
:1006d400b9680000edf40000ded4000009fe00005b
:1006e400e61c00001c840000dde800000b990000fb
:1006f400292700004e000000000000000f03000046
:10070400000000000000000000990000b733000062
:10071400527600009415000000f300007c000000f5
:1007240000260000149e0000988f000000000000c6
:10073400006a0000311600008f8c0000059600004e
:1007440000e70000b73f0000360000000000000092
:100754000000000000000000af6600009ed0000012
:10076400385d00008a6c000020b9000054220000ab
:10077400007c0000ed0400004c8000003874000090
:1007840086ed0000cbfa000057cb0000dc19000016
:10079400e20000001ddf000055060000e5cb00006c
:1007a40001c300006da80000b500000000000000b7
:1007b40000000000009a0000b200000000000000e9
:1007c4000000000000000000000000000000000025
:1007d4000000000000000000000000000000000015
:1007e4000000000000000000000000000000000005
:1007f40000000000000000000000000000000000f5
:1008040000000000000000000000000000000000e4
:1008140000000000000000000000000000000000d4
:1008240000000000000000000000000000000000c4
:1008340000000000000000000000000000000000b4
:1008440000000000000000000000000000000000a4
:100854000000000000000000000000000000000094
:100864000000000000000000000000000000000084
:100874000000000000000000000000000000000074
:1008840008cc000031aa00002c5300002e00000008
:020000040000fa
:100894000000fa00740307005a040700b3020700bb
:1008a400c0c2a900c4c2a900c142a900c542a9008e
:1008b40000032800200888000000eb0000088800de
:1008c4000000370023000700e07180000000e00012
:1008d40003003a00c4c2a900c542a90008003700b9
:1008e400e07180000000e00003003400c4c2a800ee
:1008f400c542a90002003700c4c2a900c542a8002d
:1009040001088000301f2000808f5000edff36006a
:10091400e1718000f071800000804000220020001e
:10092400110009000200d80094020700e171800060
:10093400f0718000008050002200200011000900a6
:100944000200d800b90207000000eb00000888008c
:10095400dcff37000400fa002e0037000e00780098
:10096400f90307001e40780080407800e3e120008e
:10097400e2d020000040eb00520007000004e00039
:100984002400320050d12000104078000080fb0089
:1009940010079800c00420009e009000808f500033
:1009a4001c003200c00420009e009000808f500084
:1009b40018003c001e0090000000e000150032000a
:1009c400200220009e009000808f50000100320021
:1009d40010003700e0d02000310007000004e000e0
:1009e4000c003a00e0d0200026000700a2002000fe
:1009f400110009000200d800f0718800e0d0200046
:100a04000d00070062ff2f00110009000200d8004a
:100a1400e0718800c80307000000e000cfff3a003f
:100a240051718000a044800000804000a0448800f0
:100a34000080fa00000006000200fa00000f7800af
:100a440081c0b3001e007800020007000080fa0095
:100a5400000006000400fa00000f78002147980007
:100a64009e00780068804000800078002e4090004e
:100a74000080fb0000804000100078000080fa0035
:100a8400000006000200fa00000f780061c0b30005
:100a94001e007800efff07000080fa000000060047
:100aa4000200fa00000f78009e0078006880400081
:100ab40074004000104078000080fb000080fa00c1
:100ac400000006001000fa00604798007147980083
:100ad40042079800530798006e4090008101070078
:100ae400200798006e4090007501070010079800d9
:100af4000000eb00000f78009e0090000040eb0027
:100b0400804878001e009000200090006101b80029
:100b140062079800730798009000200001002000ed
:100b24006e019000fe019000800f5100818f5900ea
:100b3400f7003e006e009000fe009000006001008f
:100b4400090037000800370016003700410037005d
:100b54003600370049003700520037006300370081
:100b64007b003700b20037007e409000e24f400027
:100b7400e7003a009e00900020002000a0009800aa
:100b8400ae0090000040eb00b04098002e009000b2
:100b9400fe409000214098002e0090003b01070089
:100ba400db0037001e009000104078000004e000d5
:100bb400110032001e009000104090008040e800b8
:100bc4001e009000114098001e00900020409000ec
:100bd4008040e8001e009000214098009e00900094
:100be4000040eb00804878009e0090001000200038
:100bf400a0009800c60037002e0090007e419000af
:100c0400324098009e0090000040eb00e0409800c5
:100c1400fe4090002e009000f50007009e0090001a
:100c240040002000a0009800b90037002e0090007a
:100c3400fe41900043409800fe4090002e0090003a
:100c4400eb0007009e00900030002000a0009800f8
:100c5400af0037002e009000fe40900051409800f5
:100c6400fe4090002e009000e10007009e009000de
:100c740050002000a0009800a50037002e0090002e
:100c84007e41900062409800fe4090002e0090004b
:100c9400d70007009e00900060002000a00098008c
:100ca4009b0037002e009000fe4190007340980096
:100cb400fe4090002e009000cd0007002e00900012
:100cc400304090000004e00004003a009e009000d0
:100cd40080002000a00098008d0037009e00900046
:100ce40070002000a0009800890037002e009000ba
:100cf40068004000800078001e0090006041900071
:100d04000280fb00808040007e4090008048780094
:100d14008240e8001e00900061409800fe40900070
:100d24002e009000b20007001e009000e0409000ea
:100d34002e0090003040900080cf500074003a00a4
:100d44009e00900080002000a000980070003700f2
:100d54002e009000704090008080fb00a03428009a
:100d6400e14078002e009000a10007007e40900032
:100d74000081fb002e0090009080fb00104090004a
:100d84000080fb004800dd00010070008000780056
:100d9400f00f200000806000800f51001700320027
:100da4001e009000204090008040e8001e0090004b
:100db400214098009e0090000040eb00804878009d
:100dc4009e00900010002000a00098007e4090003b
:100dd400e24f40004e003a009e00900020002000a8
:100de400a0009800ae0090000040eb00b0409800d6
:100df4002e009000a5000700450037009e009000db
:100e040090002000a00098002e0090006800400090
:100e1400800078001e009000604090000080fb007d
:100e2400808040007e409000804878003800370081
:100e34007e4090000081fb002e0090009080fb001b
:100e4400104090000080fb004800dd0001007000ad
:100e54004800de00800f5100170032001e00900091
:100e6400204090008040e8001e009000214098003f
:100e74009e0090000040eb00804878009e009000a7
:100e840010002000a00098007e409000e24f400037
:100e94001f003a009e00900020002000a00098004f
:100ea400ae0090000040eb00b04098002e0090008f
:100eb40076000700160037009e00900010c0b300b3
:100ec400804878009e00900010002000a000980048
:100ed4002e00900068004000800078001e00900002
:100ee400604090000080fb00008040008000e8002b
:100ef4007e40900080487800ce0090002e00900044
:100f04000f010900b05878000111b1000011b100bf
:100f14001e0fe8001e00900010407800e14f5000c2
:100f240010003a002e009000c04090001e00900077
:100f3400714098001e009000500090000000e000f6
:100f440003003a009e0090000000eb00e0009800cf
:100f54001e009000500090008000e8001e009000e9
:100f6400510098002e009000b04090004e00900078
:100f7400314098001e009000a00090005e00900098
:100f8400210098001e009000e04090005e00900058
:100f9400614098001e009000704090000040e800fe
:100fa400804078005e009000714098001e00900020
:100fb400d00090005e009000510098001e00900048
:100fc400204090008080fb005e009000610098004b
:100fd4009e0090000040eb00a04098001e0090008e
:100fe400104078000080fb000080fa00000006003a
:100ff4000400fa00000f7800214798009e00780052
:101004002e409000020007000080fa000000060055
:101014000600fa0020479800210798002e0090004f
:1010240010007800804078002e40900000cf6800c7
:101034001e80fb004400dd00804078001e407800e4
:1010440000c06800004f78002e0090001000780067
:10105400c800de001e80fb004800dd0080806800c0
:101064001e80fb004300dd00808068001e80fb00c2
:101074004400de000080fb00808068002e009000a9
:10108400010878000080fa00000006000200fa005f
:10109400000f78001e007800020007000080fa00ac
:1010a400000006000200fa00000f78009e0078009d
:1010b4000080eb00800878000080fa000000060041
:1010c4000200fa00004f78001e80fb006e00b90099
:1010d4008000780060892000008040000080fa00d1
:1010e400000006000200fa00004f78009e80fb001a
:1010f400001120000088b90080007800e08c2000f6
:10110400008040000080fa000000060000a0fe00fd
:101114003400f800881f780008002000a801880027
:101124004f0478000200fa0086c0a90060718000b4
:101134000000e0000c003400807180000000e80032
:1011440080718800a07180000000e900a07188000f
:10115400a07180000000e0000e003d00300020007f
:10116400a07188000b003700807180000000e90046
:1011740080718800a07180000000e800a0718800e0
:10118400a0718000e30f5000020034000000eb0067
:10119400a0718800a0718000000f78001e00780004
:1011a400e10f5000130032001e007800e10f5000e0
:1011b40004003c001e0078000000e000080032003b
:1011c4001a0037001e007800e20f50000e003200b3
:1011d4001e007800e30f50001000320013003700a7
:1011e400d602a900d622a800d642a900d662a80039
:1011f4000e003700d602a900d622a800d642a800c5
:10120400d662a90009003700d602a800d622a90098
:10121400d642a800d662a90004003700d602a8006e
:10122400d622a900d642a900d662a8000080fa00fe
:101234003400f9000080fe000040060000a0fe001b
:101244003400f800881f780008002000a8018800f6
:101254004f0478000200fa0086a0a9007071800093
:101264000000e0000c003d00907180000000e900e7
:1012740090718800b07180000000e900b0718800ae
:10128400b07180000000e0000e003d00300020003e
:10129400b07188000b003700907180000000e800f6
:1012a40090718800b07180000000e800b07188007f
:1012b400b0718000e30f5000020034000000eb0026
:1012c400b0718800b0718000000f78001e007800b3
:1012d400e10f5000130032001e007800e10f5000af
:1012e40004003c001e0078000000e000080032000a
:1012f4001a0037001e007800e20f50000e00320082
:101304001e007800e30f5000100032001300370075
:10131400d682a900d6a2a800d6c2a900d6e2a80007
:101324000e003700d682a900d6a2a800d6c2a80013
:10133400d6e2a90009003700d682a800d6a2a900e7
:10134400d6c2a800d6e2a90004003700d682a800bd
:10135400d6a2a900d6c2a900d6e2a8000080fa004d
:101364003400f9000080fe00004006000000fa008e
:10137400bd0007000080fa00000006000400fa0027
:10138400000f78001e00e00006003a0021e1a900e9
:10139400d602a900d622a900d642a900d662a90085
:1013a4002000370021e1a9001e0078006071880048
:1013b4000000eb0000098800011220009140780031
:1013c40000c3b30000c0700020e1b7000000eb00d0
:1013d400c00888001e017800120798001e009000c3
:1013e4000000e00003003d001e0190000201ea003d
:1013f400120798001e0190006110b900c9fb070094
:101404000001be000000200011762400f0fb07005c
:1014140031fc0700e008880086c0a9008ec0a8003f
:1014240021e1a8000080fa00000006000400fa0090
:10143400000f78001e00e00006003a001fe1a9003a
:10144400d682a900d6a2a900d6c2a900d6e2a900d4
:10145400200037001fe1a9001e0078007071880089
:101464000000eb00f0088800e111200091407800b2
:1014740000c3b30000c070001ee1b7000000eb0021
:10148400a00888001e017800120798001e00900032
:101494000000e00003003d001e0190000201ea008c
:1014a400120798001e0190006110b9009dfb07000f
:1014b4000001be000000200011762400c4fb0700d8
:1014c40005fc0700d008880086a0a9008ea0a8000b
:1014d4001fe1a8000080fa00000006000000fa00e6
:1014e400807180000080fa00000006000200fa000b
:1014f400000f78001027fc001e007800807188001f
:101504000200fc000080fa00000006000000fa005f
:10151400907180000080fa00000006000200fa00ca
:10152400000f78001027fc001e00780090718800de
:0c1534000200fc000080fa00000006002d
:020000040000fa
:10154000380e00000800000002000000000000004b
:101550000000000000000000940800009805000052
:1015600000000000880800000600000002000000e3
:10157000000000000000000000080000440000001f
:101580000200000000000000000000000000000059
:10159000000000000000000000000000000000004b
:1015a000000000000000000000000000000000003b
:1015b000000000000000000000000000000000002b
:1015c000000000000000000000000000000000001b
:1015d000000000000000000000000000000000000b
:1015e0004408000044000000020000000000000069
:1015f00000000000000000000000000000000000eb
:1016000000000000000000000000000000000000da
:1016100000000000000000000000000000000000ca
:1016200000000000000000000000000000000000ba
:1016300000000000000000000000000000000000aa
:1016400000000000000000008e08000006000000fe
:101650000200000000000000000000002c0e00004e
:0c1660000c000000000000000000000072
:020000040000fa
:10166c000000fa00c4c2a900c4e2a900c522a90066
:10167c00c582a900c542a900c5a2a900c5c2a9007e
:10168c00c5e2a900c0c2a900c0e2a900c122a900fc
:10169c00c182a900c142a900c1a2a900c1c2a9006e
:1016ac00c1e2a900d022a900cc22a900d042a900f5
:1016bc00cc42a900e2e2a900e302a900e802a900d9
:1016cc00e822a900dee2a900df02a900e402a900d9
:1016dc00e422a900e202a900de02a900d602a900b8
:1016ec00d622a900d642a900d662a900d682a900aa
:1016fc00d6a2a900d6c2a900d6e2a900d202a9009e
:10170c00d222a900d242a900d262a900d282a90099
:10171c00d2a2a900d2c2a900d2e2a900d1a2a900ea
:10172c00cda2a900e842a900e862a900e442a90000
:10173c00e462a900de22a800dec2a800e4c2a80070
:10174c00e4e2a800e502a800e522a800d302a80064
:10175c00d322a800d342a800d362a800d382a80049
:10176c00d3a2a800d3c2a800d3e2a8000080fa003c
:10177c00000006008720a900809fbe00821f780011
:10178c008c08e200150032008808e20016003200d6
:10179c008a08e2001400320041448000420020001c
:1017ac001922af00feff3700504480000000e0001b
:1017bc00070032000000e9008aa8b7003140780029
:1017cc001ae2b7000201e900f5ff3a000200370007
:1017dc008828ef0001003700414488004f01780051
:1017ec004f00be000040060000002000604488004e
:1017fc004f0178004f00be00004006008c08e2004c
:10180c00feff3a008f20a9008100e90051448800b6
:10181c00b0407800d11088004044880011002000ae
:10182c00614488008f20a8000000060060448000fe
:10183c00000006008540a900809fbe00821f780032
:10184c009208e200150032008e08e2001600320009
:10185c009008e20014003200714480004200200025
:10186c000f22af00feff3700804480000000e00034
:10187c00070032000000e90090a8b7003140780062
:10188c0010e2b7000201e900f5ff3a000200370050
:10189c008e28ef0001003700714488004f0178005a
:1018ac004f00be000040060000002000904488005d
:1018bc004f0178004f00be00004006009208e20085
:1018cc00feff3a008d40a9008100e90081448800a8
:1018dc00b04078008110880070448800110020000e
:1018ec00914488008d40a8000000060090448000c0
:1018fc0000000600809fbe008700a9001822a900e6
:10190c001802ab000800320000428000f003b20065
:10191c0001802000810040001cc2bf00804878007c
:10192c004028ec00f6ff37004f00be0000400600d8
:10193c0000428000114280000100500000000600af
:10194c0001428000124280000208e10008003200cf
:10195c00f203b20001802000028140009240780026
:10196c00014878004228ec0010002000000006001e
:10197c000000eb0000000600809fbe008520a9003f
:10198c000e22a9000e02ab00080032002044800099
:10199c00f003b200418420008100400012c2bf005d
:1019ac00804878008428ec00f6ff37004f00be001a
:1019bc0000400600204480003144800001005000ab
:1019cc000000060021448000324480000208e1003f
:1019dc0008003200f203b200418420000281400072
:1019ec0092407800014878008628ec001000200016
:1019fc00000006000000eb00000006001622ef00bd
:101a0c001822ef0018e2a90018c2a9008700a9004b
:101a1c008f00a80017e2a80070002000f0108800ca
:101a2c008720a9008f20a80081e0a9000005800074
:101a3c0001f02f0000806000510520000080400064
:101a4c000005880019e2a8001942a8004028ef0000
:101a5c004228ef00000006000c22ef000e22ef00df
:101a6c000ee2a9000ec2a9008520a9008d20a800b5
:101a7c000de2a80070002000a01088008540a9008d
:101a8c008d40a80081e0a900c0048000f1002f0067
:101a9c00008060000155200000804000c0048800d8
:101aac000fe2a8000f42a8008428ef008628ef0060
:041abc000000060020
:00000001FF
